{
  "contractName": "UpikoApp",
  "abi": [
    {
      "anonymous": false,
      "inputs": [
        {
          "indexed": false,
          "name": "name",
          "type": "string"
        },
        {
          "indexed": false,
          "name": "addrOnEthNetwork",
          "type": "address"
        },
        {
          "indexed": false,
          "name": "addrOnSideChain",
          "type": "address"
        }
      ],
      "name": "providerAdded",
      "type": "event",
      "signature": "0xa2717c2eb5b5271c56f53531f8c80e53fe5885b37eb6f8f46f02c07d43cf5c1c"
    },
    {
      "constant": false,
      "inputs": [
        {
          "name": "_name",
          "type": "string"
        },
        {
          "name": "_addrOnEthNetwork",
          "type": "address"
        }
      ],
      "name": "addProviderName",
      "outputs": [],
      "payable": false,
      "stateMutability": "nonpayable",
      "type": "function",
      "signature": "0xe0c4f2f8"
    },
    {
      "constant": true,
      "inputs": [
        {
          "name": "_ethAddr",
          "type": "address"
        }
      ],
      "name": "getProviderName",
      "outputs": [
        {
          "name": "",
          "type": "string"
        }
      ],
      "payable": false,
      "stateMutability": "view",
      "type": "function",
      "signature": "0xe73bdd47"
    },
    {
      "constant": true,
      "inputs": [],
      "name": "getAllEthAddresses",
      "outputs": [
        {
          "name": "",
          "type": "address[]"
        }
      ],
      "payable": false,
      "stateMutability": "view",
      "type": "function",
      "signature": "0x830c16be"
    },
    {
      "constant": true,
      "inputs": [],
      "name": "getTotalAddrCount",
      "outputs": [
        {
          "name": "",
          "type": "uint256"
        }
      ],
      "payable": false,
      "stateMutability": "view",
      "type": "function",
      "signature": "0x723988ea"
    }
  ],
  "bytecode": "0x608060405234801561001057600080fd5b5061065f806100206000396000f300608060405260043610610062576000357c0100000000000000000000000000000000000000000000000000000000900463ffffffff168063723988ea14610067578063830c16be14610092578063e0c4f2f8146100fe578063e73bdd4714610187575b600080fd5b34801561007357600080fd5b5061007c610243565b6040518082815260200191505060405180910390f35b34801561009e57600080fd5b506100a761024d565b6040518080602001828103825283818151815260200191508051906020019060200280838360005b838110156100ea5780820151818401526020810190506100cf565b505050509050019250505060405180910390f35b34801561010a57600080fd5b50610185600480360381019080803590602001908201803590602001908080601f0160208091040260200160405190810160405280939291908181526020018383808284378201915050505050509192919290803573ffffffffffffffffffffffffffffffffffffffff1690602001909291905050506102db565b005b34801561019357600080fd5b506101c8600480360381019080803573ffffffffffffffffffffffffffffffffffffffff1690602001909291905050506104ae565b6040518080602001828103825283818151815260200191508051906020019080838360005b838110156102085780820151818401526020810190506101ed565b50505050905090810190601f1680156102355780820380516001836020036101000a031916815260200191505b509250505060405180910390f35b6000600254905090565b606060018054806020026020016040519081016040528092919081815260200182805480156102d157602002820191906000526020600020905b8160009054906101000a900473ffffffffffffffffffffffffffffffffffffffff1673ffffffffffffffffffffffffffffffffffffffff1681526020019060010190808311610287575b5050505050905090565b816000808373ffffffffffffffffffffffffffffffffffffffff1673ffffffffffffffffffffffffffffffffffffffff168152602001908152602001600020908051906020019061032d92919061058e565b5060018190806001815401808255809150509060018203906000526020600020016000909192909190916101000a81548173ffffffffffffffffffffffffffffffffffffffff021916908373ffffffffffffffffffffffffffffffffffffffff160217905550506002600081548092919060010191905055507fa2717c2eb5b5271c56f53531f8c80e53fe5885b37eb6f8f46f02c07d43cf5c1c82823360405180806020018473ffffffffffffffffffffffffffffffffffffffff1673ffffffffffffffffffffffffffffffffffffffff1681526020018373ffffffffffffffffffffffffffffffffffffffff1673ffffffffffffffffffffffffffffffffffffffff168152602001828103825285818151815260200191508051906020019080838360005b8381101561046e578082015181840152602081019050610453565b50505050905090810190601f16801561049b5780820380516001836020036101000a031916815260200191505b5094505050505060405180910390a15050565b60606000808373ffffffffffffffffffffffffffffffffffffffff1673ffffffffffffffffffffffffffffffffffffffff1681526020019081526020016000208054600181600116156101000203166002900480601f0160208091040260200160405190810160405280929190818152602001828054600181600116156101000203166002900480156105825780601f1061055757610100808354040283529160200191610582565b820191906000526020600020905b81548152906001019060200180831161056557829003601f168201915b50505050509050919050565b828054600181600116156101000203166002900490600052602060002090601f016020900481019282601f106105cf57805160ff19168380011785556105fd565b828001600101855582156105fd579182015b828111156105fc5782518255916020019190600101906105e1565b5b50905061060a919061060e565b5090565b61063091905b8082111561062c576000816000905550600101610614565b5090565b905600a165627a7a723058206368e386f702db61e4ea61f37260dd21079e3866f0bd1c473a34705d1b34b4390029",
  "source": "pragma solidity ^0.4.23;\r\n\r\ncontract UpikoApp {\r\n  //address is eth(not sidechain) address\r\n  mapping (address => string) ethAddrToProviderName;\r\n  address[] ethAddresses;\r\n  uint addrCounter;\r\n\r\n  event providerAdded(string name, address addrOnEthNetwork, address addrOnSideChain);\r\n\r\n  function addProviderName(string memory _name, address _addrOnEthNetwork) public {\r\n    ethAddrToProviderName[_addrOnEthNetwork] = _name;\r\n    //ethAddresses[addrCounter] = _addrOnEthNetwork;\r\n    //addrCounter++;\r\n    ethAddresses.push(_addrOnEthNetwork); \r\n    addrCounter++;\r\n    emit providerAdded(_name, _addrOnEthNetwork, msg.sender);\r\n  }\r\n\r\n  function getProviderName(address _ethAddr) public view returns (string memory) {\r\n    return ethAddrToProviderName[_ethAddr];\r\n  }\r\n\r\n  function getAllEthAddresses()  public view returns (address[]){\r\n    return ethAddresses;\r\n  }\r\n\r\n  function getTotalAddrCount() public view returns (uint){\r\n    return addrCounter;\r\n  }\r\n}",
  "sourcePath": "C:/lib/2DEV/upiko-schain/contracts/UpikoApp.sol",
  "compiler": {
    "name": "solc",
    "version": "0.4.24+commit.e67f0147.Emscripten.clang"
  },
  "schemaVersion": "3.0.1",
  "updatedAt": "2019-04-30T15:35:27.323Z",
  "devdoc": {
    "methods": {}
  },
  "userdoc": {
    "methods": {}
  }
}