{
  "contractName": "UpikoApp",
  "abi": [
    {
      "constant": true,
      "inputs": [
        {
          "name": "",
          "type": "address"
        }
      ],
      "name": "userToId",
      "outputs": [
        {
          "name": "",
          "type": "uint256"
        }
      ],
      "payable": false,
      "stateMutability": "view",
      "type": "function",
      "signature": "0x0b4805d3"
    },
    {
      "constant": true,
      "inputs": [
        {
          "name": "",
          "type": "uint256"
        }
      ],
      "name": "users",
      "outputs": [
        {
          "name": "name",
          "type": "string"
        },
        {
          "name": "ethAddr",
          "type": "address"
        },
        {
          "name": "isProvider",
          "type": "bool"
        }
      ],
      "payable": false,
      "stateMutability": "view",
      "type": "function",
      "signature": "0x365b98b2"
    },
    {
      "anonymous": false,
      "inputs": [
        {
          "indexed": false,
          "name": "_name",
          "type": "string"
        },
        {
          "indexed": false,
          "name": "_ethAddr",
          "type": "address"
        },
        {
          "indexed": false,
          "name": "_isProvider",
          "type": "bool"
        },
        {
          "indexed": false,
          "name": "sChainAddr",
          "type": "address"
        }
      ],
      "name": "UserAdded",
      "type": "event",
      "signature": "0xfddfbf8588cfefa7a4b16f16617617b7a1f939c33c14602e6c24d6a36a27149e"
    },
    {
      "constant": false,
      "inputs": [
        {
          "name": "_name",
          "type": "string"
        },
        {
          "name": "_ethAddr",
          "type": "address"
        },
        {
          "name": "_isProvider",
          "type": "bool"
        }
      ],
      "name": "addUser",
      "outputs": [],
      "payable": false,
      "stateMutability": "nonpayable",
      "type": "function",
      "signature": "0xfd43d2e0"
    },
    {
      "constant": true,
      "inputs": [],
      "name": "numberOfUsers",
      "outputs": [
        {
          "name": "",
          "type": "uint256"
        }
      ],
      "payable": false,
      "stateMutability": "view",
      "type": "function",
      "signature": "0x75ce46a7"
    },
    {
      "constant": true,
      "inputs": [
        {
          "name": "_ethAddr",
          "type": "address"
        }
      ],
      "name": "idForEthAddr",
      "outputs": [
        {
          "name": "",
          "type": "uint256"
        }
      ],
      "payable": false,
      "stateMutability": "view",
      "type": "function",
      "signature": "0x3981b43f"
    }
  ],
  "bytecode": "0x608060405234801561001057600080fd5b5061075a806100206000396000f30060806040526004361061006d576000357c0100000000000000000000000000000000000000000000000000000000900463ffffffff1680630b4805d314610072578063365b98b2146100c95780633981b43f146101ad57806375ce46a714610204578063fd43d2e01461022f575b600080fd5b34801561007e57600080fd5b506100b3600480360381019080803573ffffffffffffffffffffffffffffffffffffffff1690602001909291905050506102c4565b6040518082815260200191505060405180910390f35b3480156100d557600080fd5b506100f4600480360381019080803590602001909291905050506102dc565b60405180806020018473ffffffffffffffffffffffffffffffffffffffff1673ffffffffffffffffffffffffffffffffffffffff16815260200183151515158152602001828103825285818151815260200191508051906020019080838360005b83811015610170578082015181840152602081019050610155565b50505050905090810190601f16801561019d5780820380516001836020036101000a031916815260200191505b5094505050505060405180910390f35b3480156101b957600080fd5b506101ee600480360381019080803573ffffffffffffffffffffffffffffffffffffffff1690602001909291905050506103da565b6040518082815260200191505060405180910390f35b34801561021057600080fd5b50610219610423565b6040518082815260200191505060405180910390f35b34801561023b57600080fd5b506102c2600480360381019080803590602001908201803590602001908080601f0160208091040260200160405190810160405280939291908181526020018383808284378201915050505050509192919290803573ffffffffffffffffffffffffffffffffffffffff16906020019092919080351515906020019092919050505061042d565b005b60016020528060005260406000206000915090505481565b6000818154811015156102eb57fe5b9060005260206000209060020201600091509050806000018054600181600116156101000203166002900480601f0160208091040260200160405190810160405280929190818152602001828054600181600116156101000203166002900480156103975780601f1061036c57610100808354040283529160200191610397565b820191906000526020600020905b81548152906001019060200180831161037a57829003601f168201915b5050505050908060010160009054906101000a900473ffffffffffffffffffffffffffffffffffffffff16908060010160149054906101000a900460ff16905083565b6000600160008373ffffffffffffffffffffffffffffffffffffffff1673ffffffffffffffffffffffffffffffffffffffff168152602001908152602001600020549050919050565b6000600254905090565b600082600160006060604051908101604052808881526020018773ffffffffffffffffffffffffffffffffffffffff1681526020018615158152509080600181540180825580915050906001820390600052602060002090600202016000909192909190915060008201518160000190805190602001906104af929190610689565b5060208201518160010160006101000a81548173ffffffffffffffffffffffffffffffffffffffff021916908373ffffffffffffffffffffffffffffffffffffffff16021790555060408201518160010160146101000a81548160ff021916908315150217905550505003915081600160008673ffffffffffffffffffffffffffffffffffffffff1673ffffffffffffffffffffffffffffffffffffffff168152602001908152602001600020819055506002600081548092919060010191905055507ffddfbf8588cfefa7a4b16f16617617b7a1f939c33c14602e6c24d6a36a27149e8585853360405180806020018573ffffffffffffffffffffffffffffffffffffffff1673ffffffffffffffffffffffffffffffffffffffff168152602001841515151581526020018373ffffffffffffffffffffffffffffffffffffffff1673ffffffffffffffffffffffffffffffffffffffff168152602001828103825286818151815260200191508051906020019080838360005b8381101561064557808201518184015260208101905061062a565b50505050905090810190601f1680156106725780820380516001836020036101000a031916815260200191505b509550505050505060405180910390a15050505050565b828054600181600116156101000203166002900490600052602060002090601f016020900481019282601f106106ca57805160ff19168380011785556106f8565b828001600101855582156106f8579182015b828111156106f75782518255916020019190600101906106dc565b5b5090506107059190610709565b5090565b61072b91905b8082111561072757600081600090555060010161070f565b5090565b905600a165627a7a72305820aea39e0a2d9e5a0b5783c6bbb30fd8e5cb636d90aab1cc0b045a27bb6e4377810029",
  "source": "pragma solidity ^0.4.23;\r\n\r\ncontract UpikoApp {\r\n \r\n  struct User{\r\n    string name;\r\n    address ethAddr;\r\n    bool isProvider;\r\n    //skills : TODO\r\n  }\r\n\r\n  User[] public users;\r\n  mapping (address => uint) public userToId;\r\n  uint userCount;\r\n\r\n  event UserAdded(string _name, address _ethAddr, bool _isProvider, address sChainAddr);\r\n\r\n\r\n  modifier onlyOne(address _ethAddr) {\r\n   // uint id = userToId[_ethAddr];\r\n  //require(id < 0, \"cannot create another user for this address, you can call update\");\r\n    _;\r\n  }\r\n\r\n\r\n  function addUser(string _name, address _ethAddr, bool _isProvider) public onlyOne(_ethAddr){\r\n    uint id = users.push(User(_name, _ethAddr, _isProvider)) - 1;\r\n    userToId[_ethAddr] = id;\r\n    userCount++;\r\n    emit UserAdded(_name, _ethAddr, _isProvider, msg.sender);\r\n  }\r\n\r\n  function numberOfUsers() public view returns (uint){\r\n    return userCount;\r\n  }\r\n\r\n  function idForEthAddr(address _ethAddr) public view returns (uint){\r\n    return (userToId[_ethAddr]);\r\n  }\r\n}",
  "sourcePath": "C:/lib/2DEV/upiko-schain/contracts/UpikoApp.sol",
  "compiler": {
    "name": "solc",
    "version": "0.4.24+commit.e67f0147.Emscripten.clang"
  },
  "schemaVersion": "3.0.1",
  "updatedAt": "2019-05-08T14:26:53.130Z",
  "devdoc": {
    "methods": {}
  },
  "userdoc": {
    "methods": {}
  }
}