{
  "contractName": "UpikoApp",
  "abi": [
    {
      "constant": true,
      "inputs": [
        {
          "name": "",
          "type": "address"
        }
      ],
      "name": "userToId",
      "outputs": [
        {
          "name": "",
          "type": "uint256"
        }
      ],
      "payable": false,
      "stateMutability": "view",
      "type": "function",
      "signature": "0x0b4805d3"
    },
    {
      "constant": true,
      "inputs": [
        {
          "name": "",
          "type": "uint256"
        }
      ],
      "name": "users",
      "outputs": [
        {
          "name": "name",
          "type": "string"
        },
        {
          "name": "ethAddr",
          "type": "address"
        },
        {
          "name": "isProvider",
          "type": "bool"
        }
      ],
      "payable": false,
      "stateMutability": "view",
      "type": "function",
      "signature": "0x365b98b2"
    },
    {
      "anonymous": false,
      "inputs": [
        {
          "indexed": false,
          "name": "_name",
          "type": "string"
        },
        {
          "indexed": false,
          "name": "_ethAddr",
          "type": "address"
        },
        {
          "indexed": false,
          "name": "_isProvider",
          "type": "bool"
        },
        {
          "indexed": false,
          "name": "sChainAddr",
          "type": "address"
        }
      ],
      "name": "UserAdded",
      "type": "event",
      "signature": "0xfddfbf8588cfefa7a4b16f16617617b7a1f939c33c14602e6c24d6a36a27149e"
    },
    {
      "constant": false,
      "inputs": [
        {
          "name": "_name",
          "type": "string"
        },
        {
          "name": "_ethAddr",
          "type": "address"
        },
        {
          "name": "_isProvider",
          "type": "bool"
        }
      ],
      "name": "addUser",
      "outputs": [],
      "payable": false,
      "stateMutability": "nonpayable",
      "type": "function",
      "signature": "0xfd43d2e0"
    },
    {
      "constant": true,
      "inputs": [],
      "name": "numberOfUsers",
      "outputs": [
        {
          "name": "",
          "type": "uint256"
        }
      ],
      "payable": false,
      "stateMutability": "view",
      "type": "function",
      "signature": "0x75ce46a7"
    },
    {
      "constant": true,
      "inputs": [
        {
          "name": "_ethAddr",
          "type": "address"
        }
      ],
      "name": "idForEthAddr",
      "outputs": [
        {
          "name": "",
          "type": "uint256"
        }
      ],
      "payable": false,
      "stateMutability": "view",
      "type": "function",
      "signature": "0x3981b43f"
    }
  ],
  "bytecode": "0x608060405234801561001057600080fd5b50610758806100206000396000f30060806040526004361061006d576000357c0100000000000000000000000000000000000000000000000000000000900463ffffffff1680630b4805d314610072578063365b98b2146100c95780633981b43f146101ad57806375ce46a714610204578063fd43d2e01461022f575b600080fd5b34801561007e57600080fd5b506100b3600480360381019080803573ffffffffffffffffffffffffffffffffffffffff1690602001909291905050506102c4565b6040518082815260200191505060405180910390f35b3480156100d557600080fd5b506100f4600480360381019080803590602001909291905050506102dc565b60405180806020018473ffffffffffffffffffffffffffffffffffffffff1673ffffffffffffffffffffffffffffffffffffffff16815260200183151515158152602001828103825285818151815260200191508051906020019080838360005b83811015610170578082015181840152602081019050610155565b50505050905090810190601f16801561019d5780820380516001836020036101000a031916815260200191505b5094505050505060405180910390f35b3480156101b957600080fd5b506101ee600480360381019080803573ffffffffffffffffffffffffffffffffffffffff1690602001909291905050506103da565b6040518082815260200191505060405180910390f35b34801561021057600080fd5b50610219610423565b6040518082815260200191505060405180910390f35b34801561023b57600080fd5b506102c2600480360381019080803590602001908201803590602001908080601f0160208091040260200160405190810160405280939291908181526020018383808284378201915050505050509192919290803573ffffffffffffffffffffffffffffffffffffffff16906020019092919080351515906020019092919050505061042d565b005b60016020528060005260406000206000915090505481565b6000818154811015156102eb57fe5b9060005260206000209060020201600091509050806000018054600181600116156101000203166002900480601f0160208091040260200160405190810160405280929190818152602001828054600181600116156101000203166002900480156103975780601f1061036c57610100808354040283529160200191610397565b820191906000526020600020905b81548152906001019060200180831161037a57829003601f168201915b5050505050908060010160009054906101000a900473ffffffffffffffffffffffffffffffffffffffff16908060010160149054906101000a900460ff16905083565b6000600160008373ffffffffffffffffffffffffffffffffffffffff1673ffffffffffffffffffffffffffffffffffffffff168152602001908152602001600020549050919050565b6000600254905090565b6000600160006060604051908101604052808781526020018673ffffffffffffffffffffffffffffffffffffffff1681526020018515158152509080600181540180825580915050906001820390600052602060002090600202016000909192909190915060008201518160000190805190602001906104ae929190610687565b5060208201518160010160006101000a81548173ffffffffffffffffffffffffffffffffffffffff021916908373ffffffffffffffffffffffffffffffffffffffff16021790555060408201518160010160146101000a81548160ff021916908315150217905550505003905080600160008573ffffffffffffffffffffffffffffffffffffffff1673ffffffffffffffffffffffffffffffffffffffff168152602001908152602001600020819055506002600081548092919060010191905055507ffddfbf8588cfefa7a4b16f16617617b7a1f939c33c14602e6c24d6a36a27149e8484843360405180806020018573ffffffffffffffffffffffffffffffffffffffff1673ffffffffffffffffffffffffffffffffffffffff168152602001841515151581526020018373ffffffffffffffffffffffffffffffffffffffff1673ffffffffffffffffffffffffffffffffffffffff168152602001828103825286818151815260200191508051906020019080838360005b83811015610644578082015181840152602081019050610629565b50505050905090810190601f1680156106715780820380516001836020036101000a031916815260200191505b509550505050505060405180910390a150505050565b828054600181600116156101000203166002900490600052602060002090601f016020900481019282601f106106c857805160ff19168380011785556106f6565b828001600101855582156106f6579182015b828111156106f55782518255916020019190600101906106da565b5b5090506107039190610707565b5090565b61072991905b8082111561072557600081600090555060010161070d565b5090565b905600a165627a7a72305820d33e2b7470fd8e73da915c87e6ddf0a6ba4d6fb5eb01ae5b187b561832f179010029",
  "source": "pragma solidity ^0.4.23;\r\n\r\ncontract UpikoApp {\r\n \r\n  struct User{\r\n    string name;\r\n    address ethAddr;\r\n    bool isProvider;\r\n    //skills : TODO\r\n  }\r\n\r\n  User[] public users;\r\n  mapping (address => uint) public userToId;\r\n  uint userCount;\r\n\r\n  event UserAdded(string _name, address _ethAddr, bool _isProvider, address sChainAddr);\r\n\r\n\r\n  function addUser(string _name, address _ethAddr, bool _isProvider) public {\r\n    uint id = users.push(User(_name, _ethAddr, _isProvider)) - 1;\r\n    userToId[_ethAddr] = id;\r\n    userCount++;\r\n    emit UserAdded(_name, _ethAddr, _isProvider, msg.sender);\r\n  }\r\n\r\n  function numberOfUsers() public view returns (uint){\r\n    return userCount;\r\n  }\r\n\r\n  function idForEthAddr(address _ethAddr) public view returns (uint){\r\n    return (userToId[_ethAddr]);\r\n  }\r\n\r\n  //function getAllUsers() public view returns(User[]) {\r\n  //  return (users);\r\n  //}\r\n\r\n  //function userForEthAddr(address _ethAddr) public view returns (User){\r\n  //  uint id = userToAddress[_ethAddr];\r\n  //  return users[id];\r\n  //}\r\n\r\n\r\n\r\n/*\r\n\r\n mapping (address => string) ethAddrToName;   //address is eth network(not sidechain) address\r\n  address[] ethAddresses;\r\n  uint addrCounter;\r\n\r\n  event userAdded(string name, address addrOnEthNetwork, address addrOnSideChain);\r\n\r\n  function addUser(string memory _name, address _addrOnEthNetwork, ) public {\r\n    ethAddrToProviderName[_addrOnEthNetwork] = _name;\r\n    ethAddresses.push(_addrOnEthNetwork); \r\n    addrCounter++;\r\n    emit providerAdded(_name, _addrOnEthNetwork, msg.sender);\r\n  }\r\n\r\n  function getProviderName(address _ethAddr) public view returns (string memory) {\r\n    return ethAddrToName[_ethAddr];\r\n  }\r\n\r\n  function getAllEthAddresses()  public view returns (address[]){\r\n    return ethAddresses;\r\n  }\r\n\r\n  function getTotalAddrCount() public view returns (uint){\r\n    return addrCounter;\r\n  }*/\r\n}",
  "sourcePath": "C:/lib/2DEV/upiko-schain/contracts/UpikoApp.sol",
  "compiler": {
    "name": "solc",
    "version": "0.4.24+commit.e67f0147.Emscripten.clang"
  },
  "schemaVersion": "3.0.1",
  "updatedAt": "2019-05-07T18:02:13.156Z",
  "devdoc": {
    "methods": {}
  },
  "userdoc": {
    "methods": {}
  }
}